{
  "contractName": "Lottery",
  "abi": [
    {
      "inputs": [],
      "stateMutability": "nonpayable",
      "type": "constructor"
    },
    {
      "anonymous": false,
      "inputs": [
        {
          "indexed": false,
          "internalType": "uint256",
          "name": "_prize",
          "type": "uint256"
        },
        {
          "indexed": false,
          "internalType": "address",
          "name": "_winnerAddress",
          "type": "address"
        }
      ],
      "name": "WinnerPicked",
      "type": "event"
    },
    {
      "inputs": [],
      "name": "owner",
      "outputs": [
        {
          "internalType": "address payable",
          "name": "",
          "type": "address"
        }
      ],
      "stateMutability": "view",
      "type": "function",
      "constant": true
    },
    {
      "stateMutability": "payable",
      "type": "receive",
      "payable": true
    },
    {
      "inputs": [],
      "name": "buyTickets",
      "outputs": [],
      "stateMutability": "payable",
      "type": "function",
      "payable": true
    },
    {
      "inputs": [
        {
          "internalType": "uint256",
          "name": "seed",
          "type": "uint256"
        }
      ],
      "name": "raffle",
      "outputs": [
        {
          "internalType": "address",
          "name": "",
          "type": "address"
        }
      ],
      "stateMutability": "nonpayable",
      "type": "function"
    },
    {
      "inputs": [],
      "name": "getContractBalance",
      "outputs": [
        {
          "internalType": "uint256",
          "name": "",
          "type": "uint256"
        }
      ],
      "stateMutability": "view",
      "type": "function",
      "constant": true
    }
  ],
  "bytecode": "0x608060405234801561001057600080fd5b5033600160006101000a81548173ffffffffffffffffffffffffffffffffffffffff021916908373ffffffffffffffffffffffffffffffffffffffff160217905550610b1d806100616000396000f3fe6080604052600436106100435760003560e01c80636f9fb98a146100575780638da5cb5b14610082578063c7688cf8146100ad578063c8199826146100ea57610052565b36610052576100506100f4565b005b600080fd5b34801561006357600080fd5b5061006c6101a3565b60405161007991906107a9565b60405180910390f35b34801561008e57600080fd5b5061009761023b565b6040516100a4919061072e565b60405180910390f35b3480156100b957600080fd5b506100d460048036038101906100cf91906105ed565b610261565b6040516100e19190610713565b60405180910390f35b6100f26100f4565b005b67016345785d8a0000341461013e576040517f08c379a000000000000000000000000000000000000000000000000000000000815260040161013590610749565b60405180910390fd5b6000339080600181540180825580915050600190039060005260206000200160009091909190916101000a81548173ffffffffffffffffffffffffffffffffffffffff021916908373ffffffffffffffffffffffffffffffffffffffff160217905550565b6000600160009054906101000a900473ffffffffffffffffffffffffffffffffffffffff1673ffffffffffffffffffffffffffffffffffffffff163373ffffffffffffffffffffffffffffffffffffffff1614610235576040517f08c379a000000000000000000000000000000000000000000000000000000000815260040161022c90610789565b60405180910390fd5b47905090565b600160009054906101000a900473ffffffffffffffffffffffffffffffffffffffff1681565b6000600160009054906101000a900473ffffffffffffffffffffffffffffffffffffffff1673ffffffffffffffffffffffffffffffffffffffff163373ffffffffffffffffffffffffffffffffffffffff16146102f3576040517f08c379a00000000000000000000000000000000000000000000000000000000081526004016102ea90610789565b60405180910390fd5b6000808054905090506003811015610340576040517f08c379a000000000000000000000000000000000000000000000000000000000815260040161033790610769565b60405180910390fd5b6000424485604051602001610357939291906106d6565b6040516020818303038152906040528051906020012060001c9050600082826103809190610917565b90506000808281548110610397576103966109a6565b5b9060005260206000200160009054906101000a900473ffffffffffffffffffffffffffffffffffffffff169050600160009054906101000a900473ffffffffffffffffffffffffffffffffffffffff1673ffffffffffffffffffffffffffffffffffffffff166108fc6064600a4761040f919061082f565b61041991906107fe565b9081150290604051600060405180830381858888f19350505050158015610444573d6000803e3d6000fd5b507f7286599a58b2822d6e330944038c6d3424134069b04156404050720b942d87ee47826040516104769291906107c4565b60405180910390a18073ffffffffffffffffffffffffffffffffffffffff166108fc479081150290604051600060405180830381858888f193505050501580156104c4573d6000803e3d6000fd5b50600067ffffffffffffffff8111156104e0576104df6109d5565b5b60405190808252806020026020018201604052801561050e5781602001602082028036833780820191505090505b5060009080519060200190610524929190610531565b5080945050505050919050565b8280548282559060005260206000209081019282156105aa579160200282015b828111156105a95782518260006101000a81548173ffffffffffffffffffffffffffffffffffffffff021916908373ffffffffffffffffffffffffffffffffffffffff16021790555091602001919060010190610551565b5b5090506105b791906105bb565b5090565b5b808211156105d45760008160009055506001016105bc565b5090565b6000813590506105e781610ad0565b92915050565b60006020828403121561060357610602610a04565b5b6000610611848285016105d8565b91505092915050565b610623816108d7565b82525050565b6106328161089b565b82525050565b61064181610889565b82525050565b6000610654602f836107ed565b915061065f82610a09565b604082019050919050565b6000610677601a836107ed565b915061068282610a58565b602082019050919050565b600061069a602a836107ed565b91506106a582610a81565b604082019050919050565b6106b9816108cd565b82525050565b6106d06106cb826108cd565b61090d565b82525050565b60006106e282866106bf565b6020820191506106f282856106bf565b60208201915061070282846106bf565b602082019150819050949350505050565b60006020820190506107286000830184610638565b92915050565b60006020820190506107436000830184610629565b92915050565b6000602082019050818103600083015261076281610647565b9050919050565b600060208201905081810360008301526107828161066a565b9050919050565b600060208201905081810360008301526107a28161068d565b9050919050565b60006020820190506107be60008301846106b0565b92915050565b60006040820190506107d960008301856106b0565b6107e6602083018461061a565b9392505050565b600082825260208201905092915050565b6000610809826108cd565b9150610814836108cd565b92508261082457610823610977565b5b828204905092915050565b600061083a826108cd565b9150610845836108cd565b9250817fffffffffffffffffffffffffffffffffffffffffffffffffffffffffffffffff048311821515161561087e5761087d610948565b5b828202905092915050565b6000610894826108ad565b9050919050565b60006108a6826108ad565b9050919050565b600073ffffffffffffffffffffffffffffffffffffffff82169050919050565b6000819050919050565b60006108e2826108e9565b9050919050565b60006108f4826108fb565b9050919050565b6000610906826108ad565b9050919050565b6000819050919050565b6000610922826108cd565b915061092d836108cd565b92508261093d5761093c610977565b5b828206905092915050565b7f4e487b7100000000000000000000000000000000000000000000000000000000600052601160045260246000fd5b7f4e487b7100000000000000000000000000000000000000000000000000000000600052601260045260246000fd5b7f4e487b7100000000000000000000000000000000000000000000000000000000600052603260045260246000fd5b7f4e487b7100000000000000000000000000000000000000000000000000000000600052604160045260246000fd5b600080fd5b7f596f75206d7573742073656e642065786163746c7920302e312065746865722060008201527f746f206275792061207469636b65740000000000000000000000000000000000602082015250565b7f4e6f206d696d696e756d20656e74726965732072656163686564000000000000600082015250565b7f596f7520617265206e6f7420616c6c6f77656420746f20706572666f726d207460008201527f68697320616374696f6e00000000000000000000000000000000000000000000602082015250565b610ad9816108cd565b8114610ae457600080fd5b5056fea2646970667358221220371a4eed83bcd499091f66dc94049544cf5fbbbd8e4da3e72c5c9719a95f1d2a64736f6c63430008070033",
  "immutableReferences": {},
  "source": "//SPDX-License-Identifier: MIT\r\n\r\npragma solidity ^0.8.0;\r\n\r\ncontract Lottery {\r\n    address payable[] players;\r\n    address payable public owner;\r\n\r\n    event WinnerPicked(uint _prize, address _winnerAddress);\r\n\r\n    constructor() {\r\n        owner = payable(msg.sender);\r\n    }\r\n\r\n    function buyTickets() public payable {\r\n        require(msg.value == 0.1 ether, \"You must send exactly 0.1 ether to buy a ticket\");\r\n        players.push(payable (msg.sender));\r\n    }\r\n\r\n    receive() external payable {\r\n        buyTickets();\r\n    }\r\n\r\n    modifier onlyOwner() {\r\n        require(msg.sender == owner, \"You are not allowed to perform this action\");\r\n        _;\r\n    }\r\n    \r\n    function raffle(uint seed) public onlyOwner returns(address) {\r\n        uint len = players.length;\r\n        require(len >= 3, \"No miminum entries reached\");\r\n        uint randomBigNumber = uint(keccak256(abi.encodePacked(block.timestamp, block.difficulty, seed)));\r\n        uint id = randomBigNumber % len;\r\n\t\taddress payable winner = players[id];\r\n        owner.transfer((address(this).balance) * 10 / 100);\r\n        emit WinnerPicked(address(this).balance, winner);\r\n        winner.transfer(address(this).balance);\r\n        players = new address payable[](0);\r\n        return winner;\r\n    }\r\n    function getContractBalance() public view onlyOwner returns(uint) {\r\n        return address(this).balance;\r\n    }\r\n}",
  "sourcePath": "C:\\Users\\vinic\\Documents\\MasterEthereumAndSolidityProgrammingFromScratch\\lottery\\contracts\\Lottery.sol",
  "compiler": {
    "name": "solc",
    "version": "0.8.7+commit.e28d00a7.Emscripten.clang"
  },
  "schemaVersion": "3.4.2",
  "updatedAt": "2021-08-14T23:59:34.091Z",
  "networkType": "ethereum",
  "devdoc": {
    "kind": "dev",
    "methods": {},
    "version": 1
  },
  "userdoc": {
    "kind": "user",
    "methods": {},
    "version": 1
  }
}