{
  "contractName": "Lottery",
  "abi": [
    {
      "inputs": [],
      "stateMutability": "nonpayable",
      "type": "constructor"
    },
    {
      "anonymous": false,
      "inputs": [
        {
          "indexed": false,
          "internalType": "address",
          "name": "_address",
          "type": "address"
        }
      ],
      "name": "NewPlayer",
      "type": "event"
    },
    {
      "anonymous": false,
      "inputs": [
        {
          "indexed": false,
          "internalType": "uint256",
          "name": "_prize",
          "type": "uint256"
        },
        {
          "indexed": false,
          "internalType": "address",
          "name": "_winnerAddress",
          "type": "address"
        }
      ],
      "name": "WinnerPicked",
      "type": "event"
    },
    {
      "inputs": [],
      "name": "owner",
      "outputs": [
        {
          "internalType": "address payable",
          "name": "",
          "type": "address"
        }
      ],
      "stateMutability": "view",
      "type": "function"
    },
    {
      "inputs": [
        {
          "internalType": "uint256",
          "name": "",
          "type": "uint256"
        }
      ],
      "name": "players",
      "outputs": [
        {
          "internalType": "address payable",
          "name": "",
          "type": "address"
        }
      ],
      "stateMutability": "view",
      "type": "function"
    },
    {
      "stateMutability": "payable",
      "type": "receive"
    },
    {
      "inputs": [],
      "name": "buyTickets",
      "outputs": [],
      "stateMutability": "payable",
      "type": "function"
    },
    {
      "inputs": [
        {
          "internalType": "uint256",
          "name": "seed",
          "type": "uint256"
        }
      ],
      "name": "raffle",
      "outputs": [
        {
          "internalType": "address",
          "name": "",
          "type": "address"
        }
      ],
      "stateMutability": "nonpayable",
      "type": "function"
    },
    {
      "inputs": [],
      "name": "getContractBalance",
      "outputs": [
        {
          "internalType": "uint256",
          "name": "",
          "type": "uint256"
        }
      ],
      "stateMutability": "view",
      "type": "function"
    },
    {
      "inputs": [],
      "name": "getPlayers",
      "outputs": [
        {
          "internalType": "address payable[]",
          "name": "",
          "type": "address[]"
        }
      ],
      "stateMutability": "view",
      "type": "function"
    }
  ],
  "bytecode": "0x608060405234801561001057600080fd5b5033600160006101000a81548173ffffffffffffffffffffffffffffffffffffffff021916908373ffffffffffffffffffffffffffffffffffffffff160217905550610cef806100616000396000f3fe6080604052600436106100595760003560e01c80636f9fb98a1461006d5780638b5b9ccc146100985780638da5cb5b146100c3578063c7688cf8146100ee578063c81998261461012b578063f71d96cb1461013557610068565b3661006857610066610172565b005b600080fd5b34801561007957600080fd5b50610082610258565b60405161008f9190610942565b60405180910390f35b3480156100a457600080fd5b506100ad610260565b6040516100ba91906108c0565b60405180910390f35b3480156100cf57600080fd5b506100d86102ee565b6040516100e591906108a5565b60405180910390f35b3480156100fa57600080fd5b50610115600480360381019061011091906106df565b610314565b604051610122919061088a565b60405180910390f35b610133610172565b005b34801561014157600080fd5b5061015c600480360381019061015791906106df565b6105e4565b60405161016991906108a5565b60405180910390f35b67016345785d8a000034146101bc576040517f08c379a00000000000000000000000000000000000000000000000000000000081526004016101b3906108e2565b60405180910390fd5b6000339080600181540180825580915050600190039060005260206000200160009091909190916101000a81548173ffffffffffffffffffffffffffffffffffffffff021916908373ffffffffffffffffffffffffffffffffffffffff1602179055507f52e92d4898337244a39bd42674ac561eadfd3959e947deec1c0ab82dd58b5a753360405161024e919061088a565b60405180910390a1565b600047905090565b606060008054806020026020016040519081016040528092919081815260200182805480156102e457602002820191906000526020600020905b8160009054906101000a900473ffffffffffffffffffffffffffffffffffffffff1673ffffffffffffffffffffffffffffffffffffffff168152602001906001019080831161029a575b5050505050905090565b600160009054906101000a900473ffffffffffffffffffffffffffffffffffffffff1681565b6000600160009054906101000a900473ffffffffffffffffffffffffffffffffffffffff1673ffffffffffffffffffffffffffffffffffffffff163373ffffffffffffffffffffffffffffffffffffffff16146103a6576040517f08c379a000000000000000000000000000000000000000000000000000000000815260040161039d90610922565b60405180910390fd5b60008080549050905060038110156103f3576040517f08c379a00000000000000000000000000000000000000000000000000000000081526004016103ea90610902565b60405180910390fd5b600042448560405160200161040a9392919061084d565b6040516020818303038152906040528051906020012060001c9050600082826104339190610ae9565b9050600080828154811061044a57610449610b78565b5b9060005260206000200160009054906101000a900473ffffffffffffffffffffffffffffffffffffffff169050600160009054906101000a900473ffffffffffffffffffffffffffffffffffffffff1673ffffffffffffffffffffffffffffffffffffffff166108fc6064600a476104c29190610a01565b6104cc91906109d0565b9081150290604051600060405180830381858888f193505050501580156104f7573d6000803e3d6000fd5b507f7286599a58b2822d6e330944038c6d3424134069b04156404050720b942d87ee478260405161052992919061095d565b60405180910390a18073ffffffffffffffffffffffffffffffffffffffff166108fc479081150290604051600060405180830381858888f19350505050158015610577573d6000803e3d6000fd5b50600067ffffffffffffffff81111561059357610592610ba7565b5b6040519080825280602002602001820160405280156105c15781602001602082028036833780820191505090505b50600090805190602001906105d7929190610623565b5080945050505050919050565b600081815481106105f457600080fd5b906000526020600020016000915054906101000a900473ffffffffffffffffffffffffffffffffffffffff1681565b82805482825590600052602060002090810192821561069c579160200282015b8281111561069b5782518260006101000a81548173ffffffffffffffffffffffffffffffffffffffff021916908373ffffffffffffffffffffffffffffffffffffffff16021790555091602001919060010190610643565b5b5090506106a991906106ad565b5090565b5b808211156106c65760008160009055506001016106ae565b5090565b6000813590506106d981610ca2565b92915050565b6000602082840312156106f5576106f4610bd6565b5b6000610703848285016106ca565b91505092915050565b60006107188383610733565b60208301905092915050565b61072d81610aa9565b82525050565b61073c81610a6d565b82525050565b61074b81610a6d565b82525050565b61075a81610a5b565b82525050565b600061076b82610996565b61077581856109ae565b935061078083610986565b8060005b838110156107b1578151610798888261070c565b97506107a3836109a1565b925050600181019050610784565b5085935050505092915050565b60006107cb602f836109bf565b91506107d682610bdb565b604082019050919050565b60006107ee601a836109bf565b91506107f982610c2a565b602082019050919050565b6000610811602a836109bf565b915061081c82610c53565b604082019050919050565b61083081610a9f565b82525050565b61084761084282610a9f565b610adf565b82525050565b60006108598286610836565b6020820191506108698285610836565b6020820191506108798284610836565b602082019150819050949350505050565b600060208201905061089f6000830184610751565b92915050565b60006020820190506108ba6000830184610742565b92915050565b600060208201905081810360008301526108da8184610760565b905092915050565b600060208201905081810360008301526108fb816107be565b9050919050565b6000602082019050818103600083015261091b816107e1565b9050919050565b6000602082019050818103600083015261093b81610804565b9050919050565b60006020820190506109576000830184610827565b92915050565b60006040820190506109726000830185610827565b61097f6020830184610724565b9392505050565b6000819050602082019050919050565b600081519050919050565b6000602082019050919050565b600082825260208201905092915050565b600082825260208201905092915050565b60006109db82610a9f565b91506109e683610a9f565b9250826109f6576109f5610b49565b5b828204905092915050565b6000610a0c82610a9f565b9150610a1783610a9f565b9250817fffffffffffffffffffffffffffffffffffffffffffffffffffffffffffffffff0483118215151615610a5057610a4f610b1a565b5b828202905092915050565b6000610a6682610a7f565b9050919050565b6000610a7882610a7f565b9050919050565b600073ffffffffffffffffffffffffffffffffffffffff82169050919050565b6000819050919050565b6000610ab482610abb565b9050919050565b6000610ac682610acd565b9050919050565b6000610ad882610a7f565b9050919050565b6000819050919050565b6000610af482610a9f565b9150610aff83610a9f565b925082610b0f57610b0e610b49565b5b828206905092915050565b7f4e487b7100000000000000000000000000000000000000000000000000000000600052601160045260246000fd5b7f4e487b7100000000000000000000000000000000000000000000000000000000600052601260045260246000fd5b7f4e487b7100000000000000000000000000000000000000000000000000000000600052603260045260246000fd5b7f4e487b7100000000000000000000000000000000000000000000000000000000600052604160045260246000fd5b600080fd5b7f596f75206d7573742073656e642065786163746c7920302e312065746865722060008201527f746f206275792061207469636b65740000000000000000000000000000000000602082015250565b7f4e6f206d696d696e756d20656e74726965732072656163686564000000000000600082015250565b7f596f7520617265206e6f7420616c6c6f77656420746f20706572666f726d207460008201527f68697320616374696f6e00000000000000000000000000000000000000000000602082015250565b610cab81610a9f565b8114610cb657600080fd5b5056fea26469706673582212205c1a65f4f908f90fcb689a32a76d2fb5e1cba3af6cbcacca8529009a7b81201364736f6c63430008070033",
  "immutableReferences": {},
  "source": "//SPDX-License-Identifier: MIT\r\n\r\npragma solidity ^0.8.0;\r\n\r\ncontract Lottery {\r\n    address payable[] public players;\r\n    address payable public owner;\r\n\r\n    event WinnerPicked(uint _prize, address _winnerAddress);\r\n    event NewPlayer(address _address);\r\n\r\n    constructor() {\r\n        owner = payable(msg.sender);\r\n    }\r\n\r\n    function buyTickets() public payable {\r\n        require(msg.value == 0.1 ether, \"You must send exactly 0.1 ether to buy a ticket\");\r\n        players.push(payable (msg.sender));\r\n        emit NewPlayer(msg.sender);\r\n    }\r\n\r\n    receive() external payable {\r\n        buyTickets();\r\n    }\r\n\r\n    modifier onlyOwner() {\r\n        require(msg.sender == owner, \"You are not allowed to perform this action\");\r\n        _;\r\n    }\r\n    \r\n    function raffle(uint seed) public onlyOwner returns(address) {\r\n        uint len = players.length;\r\n        require(len >= 3, \"No miminum entries reached\");\r\n        uint randomBigNumber = uint(keccak256(abi.encodePacked(block.timestamp, block.difficulty, seed)));\r\n        uint id = randomBigNumber % len;\r\n\t\taddress payable winner = players[id];\r\n        owner.transfer((address(this).balance) * 10 / 100);\r\n        emit WinnerPicked(address(this).balance, winner);\r\n        winner.transfer(address(this).balance);\r\n        players = new address payable[](0);\r\n        return winner;\r\n    }\r\n    function getContractBalance() public view returns(uint) {\r\n        return address(this).balance;\r\n    }\r\n\r\n    function getPlayers() public view returns(address payable[] memory) {\r\n        return players;\r\n    }\r\n}",
  "sourcePath": "C:\\Users\\vinic\\Documents\\MasterEthereumAndSolidityProgrammingFromScratch\\lottery\\contracts\\Lottery.sol",
  "compiler": {
    "name": "solc",
    "version": "0.8.7+commit.e28d00a7.Emscripten.clang"
  },
  "schemaVersion": "3.4.2",
  "updatedAt": "2021-08-21T14:15:57.306Z",
  "devdoc": {
    "kind": "dev",
    "methods": {},
    "version": 1
  },
  "userdoc": {
    "kind": "user",
    "methods": {},
    "version": 1
  }
}